GAS LISTING C:\Users\kenny\AppData\Local\Temp/ccrOkqPV.s 			page 1


   1               		.file	"alarm.c"
   2               		.arch atmega2561
   3               	__SREG__ = 0x3f
   4               	__SP_H__ = 0x3e
   5               	__SP_L__ = 0x3d
   6               	__tmp_reg__ = 0
   7               	__zero_reg__ = 1
   8               		.global __do_copy_data
   9               		.global __do_clear_bss
  10               		.text
  11               	.global	AlarmRinging
  12               		.type	AlarmRinging, @function
  13               	AlarmRinging:
  14               	/* prologue: frame size=0 */
  15               	/* prologue end (size=0) */
  16 0000 E091 0000 		lds r30,alarmringing
  17 0004 F091 0000 		lds r31,(alarmringing)+1
  18 0008 8081      		ld r24,Z
  19 000a 9181      		ldd r25,Z+1
  20               	/* epilogue: frame size=0 */
  21 000c 0895      		ret
  22               	/* epilogue end (size=1) */
  23               	/* function AlarmRinging size 7 (6) */
  24               		.size	AlarmRinging, .-AlarmRinging
  25               	.global	GetAlarm
  26               		.type	GetAlarm, @function
  27               	GetAlarm:
  28               	/* prologue: frame size=0 */
  29 000e CF93      		push r28
  30 0010 DF93      		push r29
  31               	/* prologue end (size=2) */
  32 0012 EC01      		movw r28,r24
  33 0014 6530      		cpi r22,5
  34 0016 7105      		cpc r23,__zero_reg__
  35 0018 04F0      		brlt .L4
  36 001a 64E0      		ldi r22,lo8(4)
  37 001c 70E0      		ldi r23,hi8(4)
  38 001e 00C0      		rjmp .L6
  39               	.L4:
  40 0020 77FF      		sbrs r23,7
  41 0022 00C0      		rjmp .L6
  42 0024 60E0      		ldi r22,lo8(0)
  43 0026 70E0      		ldi r23,hi8(0)
  44               	.L6:
  45 0028 84E6      		ldi r24,lo8(100)
  46 002a 90E0      		ldi r25,hi8(100)
  47 002c 9B01      		movw r18,r22
  48 002e 289F      		mul r18,r24
  49 0030 B001      		movw r22,r0
  50 0032 299F      		mul r18,r25
  51 0034 700D      		add r23,r0
  52 0036 389F      		mul r19,r24
  53 0038 700D      		add r23,r0
  54 003a 1124      		clr r1
  55 003c 8091 0000 		lds r24,alarms
  56 0040 9091 0000 		lds r25,(alarms)+1
  57 0044 680F      		add r22,r24
GAS LISTING C:\Users\kenny\AppData\Local\Temp/ccrOkqPV.s 			page 2


  58 0046 791F      		adc r23,r25
  59 0048 44E6      		ldi r20,lo8(100)
  60 004a 50E0      		ldi r21,hi8(100)
  61 004c CE01      		movw r24,r28
  62 004e 0E94 0000 		call memmove
  63 0052 CE01      		movw r24,r28
  64               	/* epilogue: frame size=0 */
  65 0054 DF91      		pop r29
  66 0056 CF91      		pop r28
  67 0058 0895      		ret
  68               	/* epilogue end (size=3) */
  69               	/* function GetAlarm size 38 (33) */
  70               		.size	GetAlarm, .-GetAlarm
  71               	.global	ToggleAlarmOn
  72               		.type	ToggleAlarmOn, @function
  73               	ToggleAlarmOn:
  74               	/* prologue: frame size=0 */
  75               	/* prologue end (size=0) */
  76 005a 9C01      		movw r18,r24
  77 005c 8530      		cpi r24,5
  78 005e 9105      		cpc r25,__zero_reg__
  79 0060 04F0      		brlt .L10
  80 0062 24E0      		ldi r18,lo8(4)
  81 0064 30E0      		ldi r19,hi8(4)
  82 0066 00C0      		rjmp .L12
  83               	.L10:
  84 0068 97FF      		sbrs r25,7
  85 006a 00C0      		rjmp .L12
  86 006c 20E0      		ldi r18,lo8(0)
  87 006e 30E0      		ldi r19,hi8(0)
  88               	.L12:
  89 0070 84E6      		ldi r24,lo8(100)
  90 0072 90E0      		ldi r25,hi8(100)
  91 0074 289F      		mul r18,r24
  92 0076 F001      		movw r30,r0
  93 0078 299F      		mul r18,r25
  94 007a F00D      		add r31,r0
  95 007c 389F      		mul r19,r24
  96 007e F00D      		add r31,r0
  97 0080 1124      		clr r1
  98 0082 8091 0000 		lds r24,alarms
  99 0086 9091 0000 		lds r25,(alarms)+1
 100 008a E80F      		add r30,r24
 101 008c F91F      		adc r31,r25
 102 008e 8681      		ldd r24,Z+6
 103 0090 9781      		ldd r25,Z+7
 104 0092 0197      		sbiw r24,1
 105 0094 01F4      		brne .L14
 106 0096 1782      		std Z+7,__zero_reg__
 107 0098 1682      		std Z+6,__zero_reg__
 108 009a 0895      		ret
 109               	.L14:
 110 009c 81E0      		ldi r24,lo8(1)
 111 009e 90E0      		ldi r25,hi8(1)
 112 00a0 9783      		std Z+7,r25
 113 00a2 8683      		std Z+6,r24
 114 00a4 0895      		ret
GAS LISTING C:\Users\kenny\AppData\Local\Temp/ccrOkqPV.s 			page 3


 115               	/* epilogue: frame size=0 */
 116               	/* epilogue: noreturn */
 117               	/* epilogue end (size=0) */
 118               	/* function ToggleAlarmOn size 39 (39) */
 119               		.size	ToggleAlarmOn, .-ToggleAlarmOn
 120               	.global	GetNumAlarms
 121               		.type	GetNumAlarms, @function
 122               	GetNumAlarms:
 123               	/* prologue: frame size=0 */
 124               	/* prologue end (size=0) */
 125 00a6 6091 0000 		lds r22,alarms
 126 00aa 7091 0000 		lds r23,(alarms)+1
 127 00ae 40E0      		ldi r20,lo8(0)
 128 00b0 50E0      		ldi r21,hi8(0)
 129 00b2 20E0      		ldi r18,lo8(0)
 130 00b4 30E0      		ldi r19,hi8(0)
 131               	.L19:
 132 00b6 FB01      		movw r30,r22
 133 00b8 E20F      		add r30,r18
 134 00ba F31F      		adc r31,r19
 135 00bc 8081      		ld r24,Z
 136 00be 9181      		ldd r25,Z+1
 137 00c0 0197      		sbiw r24,1
 138 00c2 01F4      		brne .L20
 139 00c4 4F5F      		subi r20,lo8(-(1))
 140 00c6 5F4F      		sbci r21,hi8(-(1))
 141               	.L20:
 142 00c8 2C59      		subi r18,lo8(-(100))
 143 00ca 3F4F      		sbci r19,hi8(-(100))
 144 00cc 81E0      		ldi r24,hi8(500)
 145 00ce 243F      		cpi r18,lo8(500)
 146 00d0 3807      		cpc r19,r24
 147 00d2 01F4      		brne .L19
 148 00d4 CA01      		movw r24,r20
 149               	/* epilogue: frame size=0 */
 150 00d6 0895      		ret
 151               	/* epilogue end (size=1) */
 152               	/* function GetNumAlarms size 26 (25) */
 153               		.size	GetNumAlarms, .-GetNumAlarms
 154               	.global	GetAlarmOn
 155               		.type	GetAlarmOn, @function
 156               	GetAlarmOn:
 157               	/* prologue: frame size=0 */
 158               	/* prologue end (size=0) */
 159 00d8 FC01      		movw r30,r24
 160 00da 8530      		cpi r24,5
 161 00dc 9105      		cpc r25,__zero_reg__
 162 00de 04F0      		brlt .L27
 163 00e0 E4E0      		ldi r30,lo8(4)
 164 00e2 F0E0      		ldi r31,hi8(4)
 165 00e4 00C0      		rjmp .L29
 166               	.L27:
 167 00e6 97FF      		sbrs r25,7
 168 00e8 00C0      		rjmp .L29
 169 00ea E0E0      		ldi r30,lo8(0)
 170 00ec F0E0      		ldi r31,hi8(0)
 171               	.L29:
GAS LISTING C:\Users\kenny\AppData\Local\Temp/ccrOkqPV.s 			page 4


 172 00ee 84E6      		ldi r24,lo8(100)
 173 00f0 90E0      		ldi r25,hi8(100)
 174 00f2 9F01      		movw r18,r30
 175 00f4 289F      		mul r18,r24
 176 00f6 F001      		movw r30,r0
 177 00f8 299F      		mul r18,r25
 178 00fa F00D      		add r31,r0
 179 00fc 389F      		mul r19,r24
 180 00fe F00D      		add r31,r0
 181 0100 1124      		clr r1
 182 0102 8091 0000 		lds r24,alarms
 183 0106 9091 0000 		lds r25,(alarms)+1
 184 010a E80F      		add r30,r24
 185 010c F91F      		adc r31,r25
 186 010e 8681      		ldd r24,Z+6
 187 0110 9781      		ldd r25,Z+7
 188               	/* epilogue: frame size=0 */
 189 0112 0895      		ret
 190               	/* epilogue end (size=1) */
 191               	/* function GetAlarmOn size 30 (29) */
 192               		.size	GetAlarmOn, .-GetAlarmOn
 193               	.global	AlarmsOn
 194               		.type	AlarmsOn, @function
 195               	AlarmsOn:
 196               	/* prologue: frame size=0 */
 197               	/* prologue end (size=0) */
 198 0114 E091 0000 		lds r30,alarms
 199 0118 F091 0000 		lds r31,(alarms)+1
 200 011c 20E0      		ldi r18,lo8(0)
 201 011e 30E0      		ldi r19,hi8(0)
 202               	.L33:
 203 0120 8081      		ld r24,Z
 204 0122 9181      		ldd r25,Z+1
 205 0124 0197      		sbiw r24,1
 206 0126 01F4      		brne .L34
 207 0128 8681      		ldd r24,Z+6
 208 012a 9781      		ldd r25,Z+7
 209 012c 0197      		sbiw r24,1
 210 012e 01F4      		brne .L34
 211 0130 81E0      		ldi r24,lo8(1)
 212 0132 90E0      		ldi r25,hi8(1)
 213 0134 0895      		ret
 214               	.L34:
 215 0136 2F5F      		subi r18,lo8(-(1))
 216 0138 3F4F      		sbci r19,hi8(-(1))
 217 013a EC59      		subi r30,lo8(-(100))
 218 013c FF4F      		sbci r31,hi8(-(100))
 219 013e 2530      		cpi r18,5
 220 0140 3105      		cpc r19,__zero_reg__
 221 0142 01F4      		brne .L33
 222 0144 80E0      		ldi r24,lo8(0)
 223 0146 90E0      		ldi r25,hi8(0)
 224 0148 0895      		ret
 225               	/* epilogue: frame size=0 */
 226               	/* epilogue: noreturn */
 227               	/* epilogue end (size=0) */
 228               	/* function AlarmsOn size 29 (29) */
GAS LISTING C:\Users\kenny\AppData\Local\Temp/ccrOkqPV.s 			page 5


 229               		.size	AlarmsOn, .-AlarmsOn
 230               	.global	InitAlarms
 231               		.type	InitAlarms, @function
 232               	InitAlarms:
 233               	/* prologue: frame size=0 */
 234               	/* prologue end (size=0) */
 235 014a 62E0      		ldi r22,lo8(2)
 236 014c 70E0      		ldi r23,hi8(2)
 237 014e 81E0      		ldi r24,lo8(1)
 238 0150 90E0      		ldi r25,hi8(1)
 239 0152 0E94 0000 		call calloc
 240 0156 9093 0000 		sts (alarmringing)+1,r25
 241 015a 8093 0000 		sts alarmringing,r24
 242 015e 62E0      		ldi r22,lo8(2)
 243 0160 70E0      		ldi r23,hi8(2)
 244 0162 81E0      		ldi r24,lo8(1)
 245 0164 90E0      		ldi r25,hi8(1)
 246 0166 0E94 0000 		call calloc
 247 016a FC01      		movw r30,r24
 248 016c 9093 0000 		sts (ringingalarm)+1,r25
 249 0170 8093 0000 		sts ringingalarm,r24
 250 0174 A091 0000 		lds r26,alarmringing
 251 0178 B091 0000 		lds r27,(alarmringing)+1
 252 017c 1D92      		st X+,__zero_reg__
 253 017e 1C92      		st X,__zero_reg__
 254 0180 8FEF      		ldi r24,lo8(-1)
 255 0182 9FEF      		ldi r25,hi8(-1)
 256 0184 9183      		std Z+1,r25
 257 0186 8083      		st Z,r24
 258 0188 64E6      		ldi r22,lo8(100)
 259 018a 70E0      		ldi r23,hi8(100)
 260 018c 85E0      		ldi r24,lo8(5)
 261 018e 90E0      		ldi r25,hi8(5)
 262 0190 0E94 0000 		call calloc
 263 0194 9093 0000 		sts (alarms)+1,r25
 264 0198 8093 0000 		sts alarms,r24
 265               	/* epilogue: frame size=0 */
 266 019c 0895      		ret
 267               	/* epilogue end (size=1) */
 268               	/* function InitAlarms size 42 (41) */
 269               		.size	InitAlarms, .-InitAlarms
 270               		.data
 271               	.LC0:
 272 0000 2530 3264 		.string	"%02d:%02d"
 272      3A25 3032 
 272      6400 
 273               		.text
 274               	.global	GetAlarmTime
 275               		.type	GetAlarmTime, @function
 276               	GetAlarmTime:
 277               	/* prologue: frame size=0 */
 278               	/* prologue end (size=0) */
 279 019e FC01      		movw r30,r24
 280 01a0 8530      		cpi r24,5
 281 01a2 9105      		cpc r25,__zero_reg__
 282 01a4 04F0      		brlt .L45
 283 01a6 E4E0      		ldi r30,lo8(4)
GAS LISTING C:\Users\kenny\AppData\Local\Temp/ccrOkqPV.s 			page 6


 284 01a8 F0E0      		ldi r31,hi8(4)
 285 01aa 00C0      		rjmp .L47
 286               	.L45:
 287 01ac 97FF      		sbrs r25,7
 288 01ae 00C0      		rjmp .L47
 289 01b0 E0E0      		ldi r30,lo8(0)
 290 01b2 F0E0      		ldi r31,hi8(0)
 291               	.L47:
 292 01b4 84E6      		ldi r24,lo8(100)
 293 01b6 90E0      		ldi r25,hi8(100)
 294 01b8 9F01      		movw r18,r30
 295 01ba 289F      		mul r18,r24
 296 01bc F001      		movw r30,r0
 297 01be 299F      		mul r18,r25
 298 01c0 F00D      		add r31,r0
 299 01c2 389F      		mul r19,r24
 300 01c4 F00D      		add r31,r0
 301 01c6 1124      		clr r1
 302 01c8 8091 0000 		lds r24,alarms
 303 01cc 9091 0000 		lds r25,(alarms)+1
 304 01d0 E80F      		add r30,r24
 305 01d2 F91F      		adc r31,r25
 306 01d4 828D      		ldd r24,Z+26
 307 01d6 938D      		ldd r25,Z+27
 308 01d8 9F93      		push r25
 309 01da 8F93      		push r24
 310 01dc 808D      		ldd r24,Z+24
 311 01de 918D      		ldd r25,Z+25
 312 01e0 9F93      		push r25
 313 01e2 8F93      		push r24
 314 01e4 80E0      		ldi r24,lo8(.LC0)
 315 01e6 90E0      		ldi r25,hi8(.LC0)
 316 01e8 9F93      		push r25
 317 01ea 8F93      		push r24
 318 01ec 7F93      		push r23
 319 01ee 6F93      		push r22
 320 01f0 0E94 0000 		call sprintf
 321 01f4 8DB7      		in r24,__SP_L__
 322 01f6 9EB7      		in r25,__SP_H__
 323 01f8 0896      		adiw r24,8
 324 01fa 0FB6      		in __tmp_reg__,__SREG__
 325 01fc F894      		cli
 326 01fe 9EBF      		out __SP_H__,r25
 327 0200 0FBE      		out __SREG__,__tmp_reg__
 328 0202 8DBF      		out __SP_L__,r24
 329               	/* epilogue: frame size=0 */
 330 0204 0895      		ret
 331               	/* epilogue end (size=1) */
 332               	/* function GetAlarmTime size 52 (51) */
 333               		.size	GetAlarmTime, .-GetAlarmTime
 334               	.global	GetAlarmName
 335               		.type	GetAlarmName, @function
 336               	GetAlarmName:
 337               	/* prologue: frame size=0 */
 338               	/* prologue end (size=0) */
 339 0206 9C01      		movw r18,r24
 340 0208 AB01      		movw r20,r22
GAS LISTING C:\Users\kenny\AppData\Local\Temp/ccrOkqPV.s 			page 7


 341 020a 8530      		cpi r24,5
 342 020c 9105      		cpc r25,__zero_reg__
 343 020e 04F0      		brlt .L51
 344 0210 24E0      		ldi r18,lo8(4)
 345 0212 30E0      		ldi r19,hi8(4)
 346 0214 00C0      		rjmp .L53
 347               	.L51:
 348 0216 97FF      		sbrs r25,7
 349 0218 00C0      		rjmp .L53
 350 021a 20E0      		ldi r18,lo8(0)
 351 021c 30E0      		ldi r19,hi8(0)
 352               	.L53:
 353 021e 84E6      		ldi r24,lo8(100)
 354 0220 90E0      		ldi r25,hi8(100)
 355 0222 289F      		mul r18,r24
 356 0224 B001      		movw r22,r0
 357 0226 299F      		mul r18,r25
 358 0228 700D      		add r23,r0
 359 022a 389F      		mul r19,r24
 360 022c 700D      		add r23,r0
 361 022e 1124      		clr r1
 362 0230 8091 0000 		lds r24,alarms
 363 0234 9091 0000 		lds r25,(alarms)+1
 364 0238 680F      		add r22,r24
 365 023a 791F      		adc r23,r25
 366 023c 685F      		subi r22,lo8(-(8))
 367 023e 7F4F      		sbci r23,hi8(-(8))
 368 0240 CA01      		movw r24,r20
 369 0242 0E94 0000 		call strcpy
 370               	/* epilogue: frame size=0 */
 371 0246 0895      		ret
 372               	/* epilogue end (size=1) */
 373               	/* function GetAlarmName size 33 (32) */
 374               		.size	GetAlarmName, .-GetAlarmName
 375               	.global	GetCurrentAlarmName
 376               		.type	GetCurrentAlarmName, @function
 377               	GetCurrentAlarmName:
 378               	/* prologue: frame size=0 */
 379               	/* prologue end (size=0) */
 380 0248 E091 0000 		lds r30,ringingalarm
 381 024c F091 0000 		lds r31,(ringingalarm)+1
 382 0250 4081      		ld r20,Z
 383 0252 5181      		ldd r21,Z+1
 384 0254 24E6      		ldi r18,lo8(100)
 385 0256 30E0      		ldi r19,hi8(100)
 386 0258 429F      		mul r20,r18
 387 025a B001      		movw r22,r0
 388 025c 439F      		mul r20,r19
 389 025e 700D      		add r23,r0
 390 0260 529F      		mul r21,r18
 391 0262 700D      		add r23,r0
 392 0264 1124      		clr r1
 393 0266 2091 0000 		lds r18,alarms
 394 026a 3091 0000 		lds r19,(alarms)+1
 395 026e 620F      		add r22,r18
 396 0270 731F      		adc r23,r19
 397 0272 685F      		subi r22,lo8(-(8))
GAS LISTING C:\Users\kenny\AppData\Local\Temp/ccrOkqPV.s 			page 8


 398 0274 7F4F      		sbci r23,hi8(-(8))
 399 0276 0E94 0000 		call strcpy
 400               	/* epilogue: frame size=0 */
 401 027a 0895      		ret
 402               	/* epilogue end (size=1) */
 403               	/* function GetCurrentAlarmName size 26 (25) */
 404               		.size	GetCurrentAlarmName, .-GetCurrentAlarmName
 405               		.data
 406               	.LC1:
 407 000a 5B41 4C41 		.string	"[ALARM] Updated alarm at pos %d\n"
 407      524D 5D20 
 407      5570 6461 
 407      7465 6420 
 407      616C 6172 
 408               	.LC2:
 409 002b 5B41 4C41 		.string	"[ALARM] Adding new alarm to pos %d\n"
 409      524D 5D20 
 409      4164 6469 
 409      6E67 206E 
 409      6577 2061 
 410               		.text
 411               	.global	addAlarm
 412               		.type	addAlarm, @function
 413               	addAlarm:
 414               	/* prologue: frame size=0 */
 415 027c EF92      		push r14
 416 027e FF92      		push r15
 417 0280 0F93      		push r16
 418 0282 1F93      		push r17
 419 0284 CF93      		push r28
 420 0286 DF93      		push r29
 421               	/* prologue end (size=6) */
 422 0288 EC01      		movw r28,r24
 423 028a E091 0000 		lds r30,alarms
 424 028e F091 0000 		lds r31,(alarms)+1
 425 0292 40E0      		ldi r20,lo8(0)
 426 0294 50E0      		ldi r21,hi8(0)
 427 0296 EE24      		clr r14
 428 0298 FF24      		clr r15
 429               	.L59:
 430 029a 0081      		ld r16,Z
 431 029c 1181      		ldd r17,Z+1
 432 029e 0130      		cpi r16,1
 433 02a0 1105      		cpc r17,__zero_reg__
 434 02a2 01F0      		breq .+2
 435 02a4 00C0      		rjmp .L60
 436 02a6 2281      		ldd r18,Z+2
 437 02a8 3381      		ldd r19,Z+3
 438 02aa 8A81      		ldd r24,Y+2
 439 02ac 9B81      		ldd r25,Y+3
 440 02ae 2817      		cp r18,r24
 441 02b0 3907      		cpc r19,r25
 442 02b2 01F0      		breq .+2
 443 02b4 00C0      		rjmp .L62
 444 02b6 5F93      		push r21
 445 02b8 4F93      		push r20
 446 02ba 80E0      		ldi r24,lo8(.LC1)
GAS LISTING C:\Users\kenny\AppData\Local\Temp/ccrOkqPV.s 			page 9


 447 02bc 90E0      		ldi r25,hi8(.LC1)
 448 02be 9F93      		push r25
 449 02c0 8F93      		push r24
 450 02c2 0E94 0000 		call printf
 451 02c6 E091 0000 		lds r30,alarms
 452 02ca F091 0000 		lds r31,(alarms)+1
 453 02ce EE0D      		add r30,r14
 454 02d0 FF1D      		adc r31,r15
 455 02d2 1583      		std Z+5,r17
 456 02d4 0483      		std Z+4,r16
 457 02d6 888D      		ldd r24,Y+24
 458 02d8 998D      		ldd r25,Y+25
 459 02da 918F      		std Z+25,r25
 460 02dc 808F      		std Z+24,r24
 461 02de 8A8D      		ldd r24,Y+26
 462 02e0 9B8D      		ldd r25,Y+27
 463 02e2 938F      		std Z+27,r25
 464 02e4 828F      		std Z+26,r24
 465 02e6 BE01      		movw r22,r28
 466 02e8 685F      		subi r22,lo8(-(8))
 467 02ea 7F4F      		sbci r23,hi8(-(8))
 468 02ec 40E1      		ldi r20,lo8(16)
 469 02ee 50E0      		ldi r21,hi8(16)
 470 02f0 CF01      		movw r24,r30
 471 02f2 0896      		adiw r24,8
 472 02f4 0E94 0000 		call strncpy
 473 02f8 E091 0000 		lds r30,alarms
 474 02fc F091 0000 		lds r31,(alarms)+1
 475 0300 EE0D      		add r30,r14
 476 0302 FF1D      		adc r31,r15
 477 0304 8C8D      		ldd r24,Y+28
 478 0306 9D8D      		ldd r25,Y+29
 479 0308 AE8D      		ldd r26,Y+30
 480 030a BF8D      		ldd r27,Y+31
 481 030c 848F      		std Z+28,r24
 482 030e 958F      		std Z+29,r25
 483 0310 A68F      		std Z+30,r26
 484 0312 B78F      		std Z+31,r27
 485 0314 88A1      		ldd r24,Y+32
 486 0316 99A1      		ldd r25,Y+33
 487 0318 91A3      		std Z+33,r25
 488 031a 80A3      		std Z+32,r24
 489 031c BE01      		movw r22,r28
 490 031e 6E5D      		subi r22,lo8(-(34))
 491 0320 7F4F      		sbci r23,hi8(-(34))
 492 0322 40E4      		ldi r20,lo8(64)
 493 0324 50E0      		ldi r21,hi8(64)
 494 0326 CF01      		movw r24,r30
 495 0328 8296      		adiw r24,34
 496 032a 0E94 0000 		call strncpy
 497 032e 00C0      		rjmp .L70
 498               	.L60:
 499 0330 5F93      		push r21
 500 0332 4F93      		push r20
 501 0334 80E0      		ldi r24,lo8(.LC2)
 502 0336 90E0      		ldi r25,hi8(.LC2)
 503 0338 9F93      		push r25
GAS LISTING C:\Users\kenny\AppData\Local\Temp/ccrOkqPV.s 			page 10


 504 033a 8F93      		push r24
 505 033c 0E94 0000 		call printf
 506 0340 E091 0000 		lds r30,alarms
 507 0344 F091 0000 		lds r31,(alarms)+1
 508 0348 EE0D      		add r30,r14
 509 034a FF1D      		adc r31,r15
 510 034c DE01      		movw r26,r28
 511 034e 84E6      		ldi r24,lo8(100)
 512               	.L65:
 513 0350 0D90      		ld r0,X+
 514 0352 0192      		st Z+,r0
 515 0354 8150      		subi r24,lo8(-(-1))
 516 0356 01F4      		brne .L65
 517               	.L70:
 518 0358 0F90      		pop __tmp_reg__
 519 035a 0F90      		pop __tmp_reg__
 520 035c 0F90      		pop __tmp_reg__
 521 035e 0F90      		pop __tmp_reg__
 522 0360 00C0      		rjmp .L64
 523               	.L62:
 524 0362 4F5F      		subi r20,lo8(-(1))
 525 0364 5F4F      		sbci r21,hi8(-(1))
 526 0366 84E6      		ldi r24,lo8(100)
 527 0368 90E0      		ldi r25,hi8(100)
 528 036a E80E      		add r14,r24
 529 036c F91E      		adc r15,r25
 530 036e EC59      		subi r30,lo8(-(100))
 531 0370 FF4F      		sbci r31,hi8(-(100))
 532 0372 4530      		cpi r20,5
 533 0374 5105      		cpc r21,__zero_reg__
 534 0376 01F0      		breq .+2
 535 0378 00C0      		rjmp .L59
 536               	.L64:
 537 037a CE01      		movw r24,r28
 538 037c 0E94 0000 		call free
 539 0380 80E0      		ldi r24,lo8(0)
 540 0382 90E0      		ldi r25,hi8(0)
 541               	/* epilogue: frame size=0 */
 542 0384 DF91      		pop r29
 543 0386 CF91      		pop r28
 544 0388 1F91      		pop r17
 545 038a 0F91      		pop r16
 546 038c FF90      		pop r15
 547 038e EF90      		pop r14
 548 0390 0895      		ret
 549               	/* epilogue end (size=7) */
 550               	/* function addAlarm size 140 (127) */
 551               		.size	addAlarm, .-addAlarm
 552               	.global	createAlarm
 553               		.type	createAlarm, @function
 554               	createAlarm:
 555               	/* prologue: frame size=0 */
 556 0392 2F92      		push r2
 557 0394 3F92      		push r3
 558 0396 4F92      		push r4
 559 0398 5F92      		push r5
 560 039a 6F92      		push r6
GAS LISTING C:\Users\kenny\AppData\Local\Temp/ccrOkqPV.s 			page 11


 561 039c 7F92      		push r7
 562 039e 8F92      		push r8
 563 03a0 9F92      		push r9
 564 03a2 AF92      		push r10
 565 03a4 BF92      		push r11
 566 03a6 CF92      		push r12
 567 03a8 DF92      		push r13
 568 03aa EF92      		push r14
 569 03ac FF92      		push r15
 570 03ae 0F93      		push r16
 571 03b0 1F93      		push r17
 572 03b2 CF93      		push r28
 573 03b4 DF93      		push r29
 574               	/* prologue end (size=18) */
 575 03b6 3C01      		movw r6,r24
 576 03b8 2B01      		movw r4,r22
 577 03ba 1A01      		movw r2,r20
 578 03bc E901      		movw r28,r18
 579 03be 64E6      		ldi r22,lo8(100)
 580 03c0 70E0      		ldi r23,hi8(100)
 581 03c2 81E0      		ldi r24,lo8(1)
 582 03c4 90E0      		ldi r25,hi8(1)
 583 03c6 0E94 0000 		call calloc
 584 03ca 4C01      		movw r8,r24
 585 03cc 81E0      		ldi r24,lo8(1)
 586 03ce 90E0      		ldi r25,hi8(1)
 587 03d0 F401      		movw r30,r8
 588 03d2 9183      		std Z+1,r25
 589 03d4 8083      		st Z,r24
 590 03d6 9783      		std Z+7,r25
 591 03d8 8683      		std Z+6,r24
 592 03da 7382      		std Z+3,r7
 593 03dc 6282      		std Z+2,r6
 594 03de 9583      		std Z+5,r25
 595 03e0 8483      		std Z+4,r24
 596 03e2 40E1      		ldi r20,lo8(16)
 597 03e4 50E0      		ldi r21,hi8(16)
 598 03e6 B201      		movw r22,r4
 599 03e8 C401      		movw r24,r8
 600 03ea 0896      		adiw r24,8
 601 03ec 0E94 0000 		call strncpy
 602 03f0 F401      		movw r30,r8
 603 03f2 318E      		std Z+25,r3
 604 03f4 208E      		std Z+24,r2
 605 03f6 D38F      		std Z+27,r29
 606 03f8 C28F      		std Z+26,r28
 607 03fa E48E      		std Z+28,r14
 608 03fc F58E      		std Z+29,r15
 609 03fe 068F      		std Z+30,r16
 610 0400 178F      		std Z+31,r17
 611 0402 D1A2      		std Z+33,r13
 612 0404 C0A2      		std Z+32,r12
 613 0406 40E4      		ldi r20,lo8(64)
 614 0408 50E0      		ldi r21,hi8(64)
 615 040a B501      		movw r22,r10
 616 040c C401      		movw r24,r8
 617 040e 8296      		adiw r24,34
GAS LISTING C:\Users\kenny\AppData\Local\Temp/ccrOkqPV.s 			page 12


 618 0410 0E94 0000 		call strncpy
 619 0414 82E6      		ldi r24,lo8(98)
 620 0416 90E0      		ldi r25,hi8(98)
 621 0418 880E      		add r8,r24
 622 041a 991E      		adc r9,r25
 623 041c F401      		movw r30,r8
 624 041e 1182      		std Z+1,__zero_reg__
 625 0420 1082      		st Z,__zero_reg__
 626 0422 8EE9      		ldi r24,lo8(-98)
 627 0424 9FEF      		ldi r25,hi8(-98)
 628 0426 880E      		add r8,r24
 629 0428 991E      		adc r9,r25
 630 042a C401      		movw r24,r8
 631 042c 0E94 0000 		call addAlarm
 632               	/* epilogue: frame size=0 */
 633 0430 DF91      		pop r29
 634 0432 CF91      		pop r28
 635 0434 1F91      		pop r17
 636 0436 0F91      		pop r16
 637 0438 FF90      		pop r15
 638 043a EF90      		pop r14
 639 043c DF90      		pop r13
 640 043e CF90      		pop r12
 641 0440 BF90      		pop r11
 642 0442 AF90      		pop r10
 643 0444 9F90      		pop r9
 644 0446 8F90      		pop r8
 645 0448 7F90      		pop r7
 646 044a 6F90      		pop r6
 647 044c 5F90      		pop r5
 648 044e 4F90      		pop r4
 649 0450 3F90      		pop r3
 650 0452 2F90      		pop r2
 651 0454 0895      		ret
 652               	/* epilogue end (size=19) */
 653               	/* function createAlarm size 98 (61) */
 654               		.size	createAlarm, .-createAlarm
 655               		.data
 656               	.LC3:
 657 004f 5B41 4C41 		.string	"[ALARM] Removing old alarm %d with id %d\n"
 657      524D 5D20 
 657      5265 6D6F 
 657      7669 6E67 
 657      206F 6C64 
 658               	.LC4:
 659 0079 5B41 4C41 		.string	"[ALARM] Keeping alarm %d with id %d\n"
 659      524D 5D20 
 659      4B65 6570 
 659      696E 6720 
 659      616C 6172 
 660               		.text
 661               	.global	clearAlarms
 662               		.type	clearAlarms, @function
 663               	clearAlarms:
 664               	/* prologue: frame size=0 */
 665 0456 0F93      		push r16
 666 0458 1F93      		push r17
GAS LISTING C:\Users\kenny\AppData\Local\Temp/ccrOkqPV.s 			page 13


 667 045a CF93      		push r28
 668 045c DF93      		push r29
 669               	/* prologue end (size=4) */
 670 045e 00E0      		ldi r16,lo8(0)
 671 0460 10E0      		ldi r17,hi8(0)
 672 0462 C0E0      		ldi r28,lo8(0)
 673 0464 D0E0      		ldi r29,hi8(0)
 674               	.L74:
 675 0466 E091 0000 		lds r30,alarms
 676 046a F091 0000 		lds r31,(alarms)+1
 677 046e EC0F      		add r30,r28
 678 0470 FD1F      		adc r31,r29
 679 0472 8481      		ldd r24,Z+4
 680 0474 9581      		ldd r25,Z+5
 681 0476 2281      		ldd r18,Z+2
 682 0478 3381      		ldd r19,Z+3
 683 047a 892B      		or r24,r25
 684 047c 01F4      		brne .L75
 685 047e 3F93      		push r19
 686 0480 2F93      		push r18
 687 0482 1F93      		push r17
 688 0484 0F93      		push r16
 689 0486 80E0      		ldi r24,lo8(.LC3)
 690 0488 90E0      		ldi r25,hi8(.LC3)
 691 048a 9F93      		push r25
 692 048c 8F93      		push r24
 693 048e 0E94 0000 		call printf
 694 0492 E091 0000 		lds r30,alarms
 695 0496 F091 0000 		lds r31,(alarms)+1
 696 049a EC0F      		add r30,r28
 697 049c FD1F      		adc r31,r29
 698 049e 84E6      		ldi r24,lo8(100)
 699 04a0 1192      		st Z+,__zero_reg__
 700 04a2 8A95      	        dec r24
 701 04a4 01F4      		brne .-6
 702 04a6 00C0      		rjmp .L82
 703               	.L75:
 704 04a8 3F93      		push r19
 705 04aa 2F93      		push r18
 706 04ac 1F93      		push r17
 707 04ae 0F93      		push r16
 708 04b0 80E0      		ldi r24,lo8(.LC4)
 709 04b2 90E0      		ldi r25,hi8(.LC4)
 710 04b4 9F93      		push r25
 711 04b6 8F93      		push r24
 712 04b8 0E94 0000 		call printf
 713 04bc E091 0000 		lds r30,alarms
 714 04c0 F091 0000 		lds r31,(alarms)+1
 715 04c4 EC0F      		add r30,r28
 716 04c6 FD1F      		adc r31,r29
 717 04c8 1582      		std Z+5,__zero_reg__
 718 04ca 1482      		std Z+4,__zero_reg__
 719               	.L82:
 720 04cc 8DB7      		in r24,__SP_L__
 721 04ce 9EB7      		in r25,__SP_H__
 722 04d0 0696      		adiw r24,6
 723 04d2 0FB6      		in __tmp_reg__,__SREG__
GAS LISTING C:\Users\kenny\AppData\Local\Temp/ccrOkqPV.s 			page 14


 724 04d4 F894      		cli
 725 04d6 9EBF      		out __SP_H__,r25
 726 04d8 0FBE      		out __SREG__,__tmp_reg__
 727 04da 8DBF      		out __SP_L__,r24
 728 04dc 0F5F      		subi r16,lo8(-(1))
 729 04de 1F4F      		sbci r17,hi8(-(1))
 730 04e0 CC59      		subi r28,lo8(-(100))
 731 04e2 DF4F      		sbci r29,hi8(-(100))
 732 04e4 0530      		cpi r16,5
 733 04e6 1105      		cpc r17,__zero_reg__
 734 04e8 01F0      		breq .+2
 735 04ea 00C0      		rjmp .L74
 736               	/* epilogue: frame size=0 */
 737 04ec DF91      		pop r29
 738 04ee CF91      		pop r28
 739 04f0 1F91      		pop r17
 740 04f2 0F91      		pop r16
 741 04f4 0895      		ret
 742               	/* epilogue end (size=5) */
 743               	/* function clearAlarms size 80 (71) */
 744               		.size	clearAlarms, .-clearAlarms
 745               		.data
 746               	.LC5:
 747 009e 416C 6172 		.string	"Alarm%%20at%%20%02d:%02d:%02d"
 747      6D25 2532 
 747      3061 7425 
 747      2532 3025 
 747      3032 643A 
 748               		.text
 749               	.global	tweetAlarm
 750               		.type	tweetAlarm, @function
 751               	tweetAlarm:
 752               	/* prologue: frame size=141 */
 753 04f6 0F93      		push r16
 754 04f8 1F93      		push r17
 755 04fa CF93      		push r28
 756 04fc DF93      		push r29
 757 04fe CDB7      		in r28,__SP_L__
 758 0500 DEB7      		in r29,__SP_H__
 759 0502 CD58      		subi r28,lo8(141)
 760 0504 D040      		sbci r29,hi8(141)
 761 0506 0FB6      		in __tmp_reg__,__SREG__
 762 0508 F894      		cli
 763 050a DEBF      		out __SP_H__,r29
 764 050c 0FBE      		out __SREG__,__tmp_reg__
 765 050e CDBF      		out __SP_L__,r28
 766               	/* prologue end (size=13) */
 767 0510 5F93      		push r21
 768 0512 4F93      		push r20
 769 0514 7F93      		push r23
 770 0516 6F93      		push r22
 771 0518 9F93      		push r25
 772 051a 8F93      		push r24
 773 051c 80E0      		ldi r24,lo8(.LC5)
 774 051e 90E0      		ldi r25,hi8(.LC5)
 775 0520 9F93      		push r25
 776 0522 8F93      		push r24
GAS LISTING C:\Users\kenny\AppData\Local\Temp/ccrOkqPV.s 			page 15


 777 0524 8E01      		movw r16,r28
 778 0526 0F5F      		subi r16,lo8(-(1))
 779 0528 1F4F      		sbci r17,hi8(-(1))
 780 052a 1F93      		push r17
 781 052c 0F93      		push r16
 782 052e 0E94 0000 		call sprintf
 783 0532 C801      		movw r24,r16
 784 0534 0E94 0000 		call tweet
 785 0538 8DB7      		in r24,__SP_L__
 786 053a 9EB7      		in r25,__SP_H__
 787 053c 0A96      		adiw r24,10
 788 053e 0FB6      		in __tmp_reg__,__SREG__
 789 0540 F894      		cli
 790 0542 9EBF      		out __SP_H__,r25
 791 0544 0FBE      		out __SREG__,__tmp_reg__
 792 0546 8DBF      		out __SP_L__,r24
 793               	/* epilogue: frame size=141 */
 794 0548 C357      		subi r28,lo8(-141)
 795 054a DF4F      		sbci r29,hi8(-141)
 796 054c 0FB6      		in __tmp_reg__,__SREG__
 797 054e F894      		cli
 798 0550 DEBF      		out __SP_H__,r29
 799 0552 0FBE      		out __SREG__,__tmp_reg__
 800 0554 CDBF      		out __SP_L__,r28
 801 0556 DF91      		pop r29
 802 0558 CF91      		pop r28
 803 055a 1F91      		pop r17
 804 055c 0F91      		pop r16
 805 055e 0895      		ret
 806               	/* epilogue end (size=12) */
 807               	/* function tweetAlarm size 53 (28) */
 808               		.size	tweetAlarm, .-tweetAlarm
 809               		.data
 810               	.LC6:
 811 00bc 5B41 4C41 		.string	"[ALARM] Comparing [%d:%d] "
 811      524D 5D20 
 811      436F 6D70 
 811      6172 696E 
 811      6720 5B25 
 812               	.LC7:
 813 00d7 746F 2061 		.string	"to alarm [%d:%d] with snooze: %d and ringing: %d\n"
 813      6C61 726D 
 813      205B 2564 
 813      3A25 645D 
 813      2077 6974 
 814               		.text
 815               	.global	compareAlarmTime
 816               		.type	compareAlarmTime, @function
 817               	compareAlarmTime:
 818               	/* prologue: frame size=0 */
 819 0560 6F92      		push r6
 820 0562 7F92      		push r7
 821 0564 8F92      		push r8
 822 0566 9F92      		push r9
 823 0568 AF92      		push r10
 824 056a BF92      		push r11
 825 056c CF92      		push r12
GAS LISTING C:\Users\kenny\AppData\Local\Temp/ccrOkqPV.s 			page 16


 826 056e DF92      		push r13
 827 0570 EF92      		push r14
 828 0572 FF92      		push r15
 829 0574 0F93      		push r16
 830 0576 1F93      		push r17
 831 0578 CF93      		push r28
 832 057a DF93      		push r29
 833 057c CDB7      		in r28,__SP_L__
 834 057e DEB7      		in r29,__SP_H__
 835               	/* prologue end (size=16) */
 836 0580 FE01      		movw r30,r28
 837 0582 EC58      		subi r30,lo8(-(116))
 838 0584 FF4F      		sbci r31,hi8(-(116))
 839 0586 A080      		ld r10,Z
 840 0588 B180      		ldd r11,Z+1
 841 058a 8AA4      		ldd r8,Y+42
 842 058c 9BA4      		ldd r9,Y+43
 843 058e 0CA5      		ldd r16,Y+44
 844 0590 1DA5      		ldd r17,Y+45
 845 0592 FE01      		movw r30,r28
 846 0594 EA58      		subi r30,lo8(-(118))
 847 0596 FF4F      		sbci r31,hi8(-(118))
 848 0598 6480      		ldd r6,Z+4
 849 059a 7580      		ldd r7,Z+5
 850 059c C280      		ldd r12,Z+2
 851 059e D380      		ldd r13,Z+3
 852 05a0 1A14      		cp __zero_reg__,r10
 853 05a2 1B04      		cpc __zero_reg__,r11
 854 05a4 04F0      		brlt .L86
 855 05a6 7801      		movw r14,r16
 856 05a8 8401      		movw r16,r8
 857 05aa 00C0      		rjmp .L88
 858               	.L86:
 859 05ac 0E94 0000 		call GetSnooze
 860 05b0 A89E      		mul r10,r24
 861 05b2 9001      		movw r18,r0
 862 05b4 A99E      		mul r10,r25
 863 05b6 300D      		add r19,r0
 864 05b8 B89E      		mul r11,r24
 865 05ba 300D      		add r19,r0
 866 05bc 1124      		clr r1
 867 05be 200F      		add r18,r16
 868 05c0 311F      		adc r19,r17
 869 05c2 C901      		movw r24,r18
 870 05c4 6CE3      		ldi r22,lo8(60)
 871 05c6 70E0      		ldi r23,hi8(60)
 872 05c8 0E94 0000 		call __divmodhi4
 873 05cc 8B01      		movw r16,r22
 874 05ce 080D      		add r16,r8
 875 05d0 191D      		adc r17,r9
 876 05d2 C901      		movw r24,r18
 877 05d4 6CE3      		ldi r22,lo8(60)
 878 05d6 70E0      		ldi r23,hi8(60)
 879 05d8 0E94 0000 		call __divmodhi4
 880 05dc 7C01      		movw r14,r24
 881               	.L88:
 882 05de DF92      		push r13
GAS LISTING C:\Users\kenny\AppData\Local\Temp/ccrOkqPV.s 			page 17


 883 05e0 CF92      		push r12
 884 05e2 7F92      		push r7
 885 05e4 6F92      		push r6
 886 05e6 80E0      		ldi r24,lo8(.LC6)
 887 05e8 90E0      		ldi r25,hi8(.LC6)
 888 05ea 9F93      		push r25
 889 05ec 8F93      		push r24
 890 05ee 0E94 0000 		call printf
 891 05f2 E091 0000 		lds r30,alarmringing
 892 05f6 F091 0000 		lds r31,(alarmringing)+1
 893 05fa 8081      		ld r24,Z
 894 05fc 9181      		ldd r25,Z+1
 895 05fe 9F93      		push r25
 896 0600 8F93      		push r24
 897 0602 BF92      		push r11
 898 0604 AF92      		push r10
 899 0606 FF92      		push r15
 900 0608 EF92      		push r14
 901 060a 1F93      		push r17
 902 060c 0F93      		push r16
 903 060e 80E0      		ldi r24,lo8(.LC7)
 904 0610 90E0      		ldi r25,hi8(.LC7)
 905 0612 9F93      		push r25
 906 0614 8F93      		push r24
 907 0616 0E94 0000 		call printf
 908 061a 8DB7      		in r24,__SP_L__
 909 061c 9EB7      		in r25,__SP_H__
 910 061e 4096      		adiw r24,16
 911 0620 0FB6      		in __tmp_reg__,__SREG__
 912 0622 F894      		cli
 913 0624 9EBF      		out __SP_H__,r25
 914 0626 0FBE      		out __SREG__,__tmp_reg__
 915 0628 8DBF      		out __SP_L__,r24
 916 062a 0615      		cp r16,r6
 917 062c 1705      		cpc r17,r7
 918 062e 01F4      		brne .L89
 919 0630 EC14      		cp r14,r12
 920 0632 FD04      		cpc r15,r13
 921 0634 01F4      		brne .L91
 922 0636 E091 0000 		lds r30,alarmringing
 923 063a F091 0000 		lds r31,(alarmringing)+1
 924 063e 8081      		ld r24,Z
 925 0640 9181      		ldd r25,Z+1
 926 0642 892B      		or r24,r25
 927 0644 01F4      		brne .L91
 928 0646 81E0      		ldi r24,lo8(1)
 929 0648 90E0      		ldi r25,hi8(1)
 930 064a 00C0      		rjmp .L94
 931               	.L91:
 932 064c 8EEF      		ldi r24,lo8(-2)
 933 064e 9FEF      		ldi r25,hi8(-2)
 934 0650 C80E      		add r12,r24
 935 0652 D91E      		adc r13,r25
 936 0654 EC14      		cp r14,r12
 937 0656 FD04      		cpc r15,r13
 938 0658 04F4      		brge .L89
 939 065a E091 0000 		lds r30,alarmringing
GAS LISTING C:\Users\kenny\AppData\Local\Temp/ccrOkqPV.s 			page 18


 940 065e F091 0000 		lds r31,(alarmringing)+1
 941 0662 8081      		ld r24,Z
 942 0664 9181      		ldd r25,Z+1
 943 0666 0197      		sbiw r24,1
 944 0668 01F4      		brne .L89
 945 066a 82E0      		ldi r24,lo8(2)
 946 066c 90E0      		ldi r25,hi8(2)
 947 066e 00C0      		rjmp .L94
 948               	.L89:
 949 0670 80E0      		ldi r24,lo8(0)
 950 0672 90E0      		ldi r25,hi8(0)
 951               	.L94:
 952               	/* epilogue: frame size=0 */
 953 0674 DF91      		pop r29
 954 0676 CF91      		pop r28
 955 0678 1F91      		pop r17
 956 067a 0F91      		pop r16
 957 067c FF90      		pop r15
 958 067e EF90      		pop r14
 959 0680 DF90      		pop r13
 960 0682 CF90      		pop r12
 961 0684 BF90      		pop r11
 962 0686 AF90      		pop r10
 963 0688 9F90      		pop r9
 964 068a 8F90      		pop r8
 965 068c 7F90      		pop r7
 966 068e 6F90      		pop r6
 967 0690 0895      		ret
 968               	/* epilogue end (size=15) */
 969               	/* function compareAlarmTime size 154 (123) */
 970               		.size	compareAlarmTime, .-compareAlarmTime
 971               	.global	SnoozeAlarm
 972               		.type	SnoozeAlarm, @function
 973               	SnoozeAlarm:
 974               	/* prologue: frame size=0 */
 975               	/* prologue end (size=0) */
 976 0692 E091 0000 		lds r30,alarmringing
 977 0696 F091 0000 		lds r31,(alarmringing)+1
 978 069a 1182      		std Z+1,__zero_reg__
 979 069c 1082      		st Z,__zero_reg__
 980 069e E091 0000 		lds r30,ringingalarm
 981 06a2 F091 0000 		lds r31,(ringingalarm)+1
 982 06a6 2081      		ld r18,Z
 983 06a8 3181      		ldd r19,Z+1
 984 06aa 84E6      		ldi r24,lo8(100)
 985 06ac 90E0      		ldi r25,hi8(100)
 986 06ae 289F      		mul r18,r24
 987 06b0 F001      		movw r30,r0
 988 06b2 299F      		mul r18,r25
 989 06b4 F00D      		add r31,r0
 990 06b6 389F      		mul r19,r24
 991 06b8 F00D      		add r31,r0
 992 06ba 1124      		clr r1
 993 06bc 8091 0000 		lds r24,alarms
 994 06c0 9091 0000 		lds r25,(alarms)+1
 995 06c4 E80F      		add r30,r24
 996 06c6 F91F      		adc r31,r25
GAS LISTING C:\Users\kenny\AppData\Local\Temp/ccrOkqPV.s 			page 19


 997 06c8 EE59      		subi r30,lo8(-(98))
 998 06ca FF4F      		sbci r31,hi8(-(98))
 999 06cc 8081      		ld r24,Z
 1000 06ce 9181      		ldd r25,Z+1
 1001 06d0 E256      		subi r30,lo8(-(-98))
 1002 06d2 F040      		sbci r31,hi8(-(-98))
 1003 06d4 8330      		cpi r24,3
 1004 06d6 9105      		cpc r25,__zero_reg__
 1005 06d8 04F0      		brlt .L99
 1006 06da 80E0      		ldi r24,lo8(0)
 1007 06dc 90E0      		ldi r25,hi8(0)
 1008 06de 00C0      		rjmp .L101
 1009               	.L99:
 1010 06e0 0196      		adiw r24,1
 1011               	.L101:
 1012 06e2 EE59      		subi r30,lo8(-(98))
 1013 06e4 FF4F      		sbci r31,hi8(-(98))
 1014 06e6 9183      		std Z+1,r25
 1015 06e8 8083      		st Z,r24
 1016 06ea E091 0000 		lds r30,ringingalarm
 1017 06ee F091 0000 		lds r31,(ringingalarm)+1
 1018 06f2 8FEF      		ldi r24,lo8(-1)
 1019 06f4 9FEF      		ldi r25,hi8(-1)
 1020 06f6 9183      		std Z+1,r25
 1021 06f8 8083      		st Z,r24
 1022 06fa 0E94 0000 		call stop
 1023               	/* epilogue: frame size=0 */
 1024 06fe 0895      		ret
 1025               	/* epilogue end (size=1) */
 1026               	/* function SnoozeAlarm size 55 (54) */
 1027               		.size	SnoozeAlarm, .-SnoozeAlarm
 1028               		.data
 1029               	.LC8:
 1030 0109 5B41 4C41 		.string	"[ALARM] Alarm %d:%s is ringing"
 1030      524D 5D20 
 1030      416C 6172 
 1030      6D20 2564 
 1030      3A25 7320 
 1031               	.LC9:
 1032 0128 5B41 4C41 		.string	"[ALARM] Alarm %d:%s has timed out"
 1032      524D 5D20 
 1032      416C 6172 
 1032      6D20 2564 
 1032      3A25 7320 
 1033               		.text
 1034               	.global	checkAlarms
 1035               		.type	checkAlarms, @function
 1036               	checkAlarms:
 1037               	/* prologue: frame size=0 */
 1038 0700 EF92      		push r14
 1039 0702 FF92      		push r15
 1040 0704 0F93      		push r16
 1041 0706 1F93      		push r17
 1042 0708 CF93      		push r28
 1043 070a DF93      		push r29
 1044               	/* prologue end (size=6) */
 1045 070c EE24      		clr r14
GAS LISTING C:\Users\kenny\AppData\Local\Temp/ccrOkqPV.s 			page 20


 1046 070e FF24      		clr r15
 1047 0710 00E0      		ldi r16,lo8(0)
 1048 0712 10E0      		ldi r17,hi8(0)
 1049               	.L104:
 1050 0714 E091 0000 		lds r30,alarms
 1051 0718 F091 0000 		lds r31,(alarms)+1
 1052 071c E00F      		add r30,r16
 1053 071e F11F      		adc r31,r17
 1054 0720 8081      		ld r24,Z
 1055 0722 9181      		ldd r25,Z+1
 1056 0724 0197      		sbiw r24,1
 1057 0726 01F0      		breq .+2
 1058 0728 00C0      		rjmp .L105
 1059 072a 8681      		ldd r24,Z+6
 1060 072c 9781      		ldd r25,Z+7
 1061 072e 0197      		sbiw r24,1
 1062 0730 01F0      		breq .+2
 1063 0732 00C0      		rjmp .L105
 1064 0734 0E94 0000 		call GetTimeStruct
 1065 0738 2DB7      		in r18,__SP_L__
 1066 073a 3EB7      		in r19,__SP_H__
 1067 073c 2251      		subi r18,lo8(-(-18))
 1068 073e 3040      		sbci r19,hi8(-(-18))
 1069 0740 0FB6      		in __tmp_reg__,__SREG__
 1070 0742 F894      		cli
 1071 0744 3EBF      		out __SP_H__,r19
 1072 0746 0FBE      		out __SREG__,__tmp_reg__
 1073 0748 2DBF      		out __SP_L__,r18
 1074 074a ADB7      		in r26,__SP_L__
 1075 074c BEB7      		in r27,__SP_H__
 1076 074e 1196      		adiw r26,1
 1077 0750 FC01      		movw r30,r24
 1078 0752 82E1      		ldi r24,lo8(18)
 1079               	.L108:
 1080 0754 0190      		ld r0,Z+
 1081 0756 0D92      		st X+,r0
 1082 0758 8150      		subi r24,lo8(-(-1))
 1083 075a 01F4      		brne .L108
 1084 075c E091 0000 		lds r30,alarms
 1085 0760 F091 0000 		lds r31,(alarms)+1
 1086 0764 8DB7      		in r24,__SP_L__
 1087 0766 9EB7      		in r25,__SP_H__
 1088 0768 8456      		subi r24,lo8(-(-100))
 1089 076a 9040      		sbci r25,hi8(-(-100))
 1090 076c 0FB6      		in __tmp_reg__,__SREG__
 1091 076e F894      		cli
 1092 0770 9EBF      		out __SP_H__,r25
 1093 0772 0FBE      		out __SREG__,__tmp_reg__
 1094 0774 8DBF      		out __SP_L__,r24
 1095 0776 ADB7      		in r26,__SP_L__
 1096 0778 BEB7      		in r27,__SP_H__
 1097 077a 1196      		adiw r26,1
 1098 077c E00F      		add r30,r16
 1099 077e F11F      		adc r31,r17
 1100 0780 84E6      		ldi r24,lo8(100)
 1101               	.L109:
 1102 0782 0190      		ld r0,Z+
GAS LISTING C:\Users\kenny\AppData\Local\Temp/ccrOkqPV.s 			page 21


 1103 0784 0D92      		st X+,r0
 1104 0786 8150      		subi r24,lo8(-(-1))
 1105 0788 01F4      		brne .L109
 1106 078a 0E94 0000 		call compareAlarmTime
 1107 078e EC01      		movw r28,r24
 1108 0790 2DB7      		in r18,__SP_L__
 1109 0792 3EB7      		in r19,__SP_H__
 1110 0794 2A58      		subi r18,lo8(-(118))
 1111 0796 3F4F      		sbci r19,hi8(-(118))
 1112 0798 0FB6      		in __tmp_reg__,__SREG__
 1113 079a F894      		cli
 1114 079c 3EBF      		out __SP_H__,r19
 1115 079e 0FBE      		out __SREG__,__tmp_reg__
 1116 07a0 2DBF      		out __SP_L__,r18
 1117 07a2 8130      		cpi r24,1
 1118 07a4 9105      		cpc r25,__zero_reg__
 1119 07a6 01F0      		breq .+2
 1120 07a8 00C0      		rjmp .L110
 1121 07aa 8091 0000 		lds r24,alarms
 1122 07ae 9091 0000 		lds r25,(alarms)+1
 1123 07b2 800F      		add r24,r16
 1124 07b4 911F      		adc r25,r17
 1125 07b6 0896      		adiw r24,8
 1126 07b8 9F93      		push r25
 1127 07ba 8F93      		push r24
 1128 07bc FF92      		push r15
 1129 07be EF92      		push r14
 1130 07c0 80E0      		ldi r24,lo8(.LC8)
 1131 07c2 90E0      		ldi r25,hi8(.LC8)
 1132 07c4 9F93      		push r25
 1133 07c6 8F93      		push r24
 1134 07c8 0E94 0000 		call printf
 1135 07cc E091 0000 		lds r30,alarmringing
 1136 07d0 F091 0000 		lds r31,(alarmringing)+1
 1137 07d4 D183      		std Z+1,r29
 1138 07d6 C083      		st Z,r28
 1139 07d8 E091 0000 		lds r30,ringingalarm
 1140 07dc F091 0000 		lds r31,(ringingalarm)+1
 1141 07e0 F182      		std Z+1,r15
 1142 07e2 E082      		st Z,r14
 1143 07e4 E091 0000 		lds r30,alarms
 1144 07e8 F091 0000 		lds r31,(alarms)+1
 1145 07ec E00F      		add r30,r16
 1146 07ee F11F      		adc r31,r17
 1147 07f0 628D      		ldd r22,Z+26
 1148 07f2 738D      		ldd r23,Z+27
 1149 07f4 40E0      		ldi r20,lo8(0)
 1150 07f6 50E0      		ldi r21,hi8(0)
 1151 07f8 808D      		ldd r24,Z+24
 1152 07fa 918D      		ldd r25,Z+25
 1153 07fc 0E94 0000 		call tweetAlarm
 1154 0800 6AE0      		ldi r22,lo8(10)
 1155 0802 70E0      		ldi r23,hi8(10)
 1156 0804 80E0      		ldi r24,hlo8(10)
 1157 0806 90E0      		ldi r25,hhi8(10)
 1158 0808 0E94 0000 		call NutSleep
 1159 080c 0E94 0000 		call AlarmStartedRinging
GAS LISTING C:\Users\kenny\AppData\Local\Temp/ccrOkqPV.s 			page 22


 1160 0810 E091 0000 		lds r30,alarms
 1161 0814 F091 0000 		lds r31,(alarms)+1
 1162 0818 E00F      		add r30,r16
 1163 081a F11F      		adc r31,r17
 1164 081c 40A1      		ldd r20,Z+32
 1165 081e 51A1      		ldd r21,Z+33
 1166 0820 648D      		ldd r22,Z+28
 1167 0822 758D      		ldd r23,Z+29
 1168 0824 868D      		ldd r24,Z+30
 1169 0826 978D      		ldd r25,Z+31
 1170 0828 B296      		adiw r30,34
 1171 082a 9F01      		movw r18,r30
 1172 082c 0E94 0000 		call play
 1173 0830 8DB7      		in r24,__SP_L__
 1174 0832 9EB7      		in r25,__SP_H__
 1175 0834 0696      		adiw r24,6
 1176 0836 0FB6      		in __tmp_reg__,__SREG__
 1177 0838 F894      		cli
 1178 083a 9EBF      		out __SP_H__,r25
 1179 083c 0FBE      		out __SREG__,__tmp_reg__
 1180 083e 8DBF      		out __SP_L__,r24
 1181 0840 00C0      		rjmp .L105
 1182               	.L110:
 1183 0842 0297      		sbiw r24,2
 1184 0844 01F4      		brne .L105
 1185 0846 8091 0000 		lds r24,alarms
 1186 084a 9091 0000 		lds r25,(alarms)+1
 1187 084e 800F      		add r24,r16
 1188 0850 911F      		adc r25,r17
 1189 0852 0896      		adiw r24,8
 1190 0854 9F93      		push r25
 1191 0856 8F93      		push r24
 1192 0858 FF92      		push r15
 1193 085a EF92      		push r14
 1194 085c 80E0      		ldi r24,lo8(.LC9)
 1195 085e 90E0      		ldi r25,hi8(.LC9)
 1196 0860 9F93      		push r25
 1197 0862 8F93      		push r24
 1198 0864 0E94 0000 		call printf
 1199 0868 0E94 0000 		call SnoozeAlarm
 1200 086c 0E94 0000 		call AlarmStoppedRinging
 1201 0870 2DB7      		in r18,__SP_L__
 1202 0872 3EB7      		in r19,__SP_H__
 1203 0874 2A5F      		subi r18,lo8(-(6))
 1204 0876 3F4F      		sbci r19,hi8(-(6))
 1205 0878 0FB6      		in __tmp_reg__,__SREG__
 1206 087a F894      		cli
 1207 087c 3EBF      		out __SP_H__,r19
 1208 087e 0FBE      		out __SREG__,__tmp_reg__
 1209 0880 2DBF      		out __SP_L__,r18
 1210               	.L105:
 1211 0882 0894      		sec
 1212 0884 E11C      		adc r14,__zero_reg__
 1213 0886 F11C      		adc r15,__zero_reg__
 1214 0888 0C59      		subi r16,lo8(-(100))
 1215 088a 1F4F      		sbci r17,hi8(-(100))
 1216 088c 35E0      		ldi r19,lo8(5)
GAS LISTING C:\Users\kenny\AppData\Local\Temp/ccrOkqPV.s 			page 23


 1217 088e E316      		cp r14,r19
 1218 0890 F104      		cpc r15,__zero_reg__
 1219 0892 01F0      		breq .+2
 1220 0894 00C0      		rjmp .L104
 1221               	/* epilogue: frame size=0 */
 1222 0896 DF91      		pop r29
 1223 0898 CF91      		pop r28
 1224 089a 1F91      		pop r17
 1225 089c 0F91      		pop r16
 1226 089e FF90      		pop r15
 1227 08a0 EF90      		pop r14
 1228 08a2 0895      		ret
 1229               	/* epilogue end (size=7) */
 1230               	/* function checkAlarms size 215 (202) */
 1231               		.size	checkAlarms, .-checkAlarms
 1232               	.global	StopAlarm
 1233               		.type	StopAlarm, @function
 1234               	StopAlarm:
 1235               	/* prologue: frame size=0 */
 1236               	/* prologue end (size=0) */
 1237 08a4 E091 0000 		lds r30,alarmringing
 1238 08a8 F091 0000 		lds r31,(alarmringing)+1
 1239 08ac 1182      		std Z+1,__zero_reg__
 1240 08ae 1082      		st Z,__zero_reg__
 1241 08b0 A091 0000 		lds r26,ringingalarm
 1242 08b4 B091 0000 		lds r27,(ringingalarm)+1
 1243 08b8 2D91      		ld r18,X+
 1244 08ba 3C91      		ld r19,X
 1245 08bc 1197      		sbiw r26,1
 1246 08be 84E6      		ldi r24,lo8(100)
 1247 08c0 90E0      		ldi r25,hi8(100)
 1248 08c2 289F      		mul r18,r24
 1249 08c4 F001      		movw r30,r0
 1250 08c6 299F      		mul r18,r25
 1251 08c8 F00D      		add r31,r0
 1252 08ca 389F      		mul r19,r24
 1253 08cc F00D      		add r31,r0
 1254 08ce 1124      		clr r1
 1255 08d0 8091 0000 		lds r24,alarms
 1256 08d4 9091 0000 		lds r25,(alarms)+1
 1257 08d8 E80F      		add r30,r24
 1258 08da F91F      		adc r31,r25
 1259 08dc EE59      		subi r30,lo8(-(98))
 1260 08de FF4F      		sbci r31,hi8(-(98))
 1261 08e0 1182      		std Z+1,__zero_reg__
 1262 08e2 1082      		st Z,__zero_reg__
 1263 08e4 8FEF      		ldi r24,lo8(-1)
 1264 08e6 9FEF      		ldi r25,hi8(-1)
 1265 08e8 8D93      		st X+,r24
 1266 08ea 9C93      		st X,r25
 1267 08ec 0E94 0000 		call stop
 1268               	/* epilogue: frame size=0 */
 1269 08f0 0895      		ret
 1270               	/* epilogue end (size=1) */
 1271               	/* function StopAlarm size 39 (38) */
 1272               		.size	StopAlarm, .-StopAlarm
 1273               		.comm gmt,18,1
GAS LISTING C:\Users\kenny\AppData\Local\Temp/ccrOkqPV.s 			page 24


 1274               		.comm synced,2,1
 1275               		.comm alarms,2,1
 1276               		.comm ringingalarm,2,1
 1277               		.comm alarmringing,2,1
 1278               		.comm tweetJSON,512,1
 1279               	/* File "source/alarm.c": code 1156 = 0x0484 (1014), prologues  65, epilogues  77 */
GAS LISTING C:\Users\kenny\AppData\Local\Temp/ccrOkqPV.s 			page 25


DEFINED SYMBOLS
                            *ABS*:00000000 alarm.c
C:\Users\kenny\AppData\Local\Temp/ccrOkqPV.s:3      *ABS*:0000003f __SREG__
C:\Users\kenny\AppData\Local\Temp/ccrOkqPV.s:4      *ABS*:0000003e __SP_H__
C:\Users\kenny\AppData\Local\Temp/ccrOkqPV.s:5      *ABS*:0000003d __SP_L__
C:\Users\kenny\AppData\Local\Temp/ccrOkqPV.s:6      *ABS*:00000000 __tmp_reg__
C:\Users\kenny\AppData\Local\Temp/ccrOkqPV.s:7      *ABS*:00000001 __zero_reg__
C:\Users\kenny\AppData\Local\Temp/ccrOkqPV.s:13     .text:00000000 AlarmRinging
                            *COM*:00000002 alarmringing
C:\Users\kenny\AppData\Local\Temp/ccrOkqPV.s:27     .text:0000000e GetAlarm
                            *COM*:00000002 alarms
C:\Users\kenny\AppData\Local\Temp/ccrOkqPV.s:73     .text:0000005a ToggleAlarmOn
C:\Users\kenny\AppData\Local\Temp/ccrOkqPV.s:122    .text:000000a6 GetNumAlarms
C:\Users\kenny\AppData\Local\Temp/ccrOkqPV.s:156    .text:000000d8 GetAlarmOn
C:\Users\kenny\AppData\Local\Temp/ccrOkqPV.s:195    .text:00000114 AlarmsOn
C:\Users\kenny\AppData\Local\Temp/ccrOkqPV.s:232    .text:0000014a InitAlarms
                            *COM*:00000002 ringingalarm
C:\Users\kenny\AppData\Local\Temp/ccrOkqPV.s:276    .text:0000019e GetAlarmTime
C:\Users\kenny\AppData\Local\Temp/ccrOkqPV.s:336    .text:00000206 GetAlarmName
C:\Users\kenny\AppData\Local\Temp/ccrOkqPV.s:377    .text:00000248 GetCurrentAlarmName
C:\Users\kenny\AppData\Local\Temp/ccrOkqPV.s:413    .text:0000027c addAlarm
C:\Users\kenny\AppData\Local\Temp/ccrOkqPV.s:554    .text:00000392 createAlarm
C:\Users\kenny\AppData\Local\Temp/ccrOkqPV.s:663    .text:00000456 clearAlarms
C:\Users\kenny\AppData\Local\Temp/ccrOkqPV.s:751    .text:000004f6 tweetAlarm
C:\Users\kenny\AppData\Local\Temp/ccrOkqPV.s:817    .text:00000560 compareAlarmTime
C:\Users\kenny\AppData\Local\Temp/ccrOkqPV.s:973    .text:00000692 SnoozeAlarm
C:\Users\kenny\AppData\Local\Temp/ccrOkqPV.s:1036   .text:00000700 checkAlarms
C:\Users\kenny\AppData\Local\Temp/ccrOkqPV.s:1234   .text:000008a4 StopAlarm
                            *COM*:00000012 gmt
                            *COM*:00000002 synced
                            *COM*:00000200 tweetJSON

UNDEFINED SYMBOLS
__do_copy_data
__do_clear_bss
memmove
calloc
sprintf
strcpy
printf
strncpy
free
tweet
GetSnooze
__divmodhi4
stop
GetTimeStruct
NutSleep
AlarmStartedRinging
play
AlarmStoppedRinging
